:100000000C94F6020C9413030C9413030C944F21DC
:100010000C9413030C9413030C9413030C94130308
:100020000C9413030C9413030C940D270C94E127E8
:100030000C94CC1F0C9413030C9413030C94130313
:100040000C9413030C9413030C9413030C941303D8
:100050000C9413030C946F200C9413030C9413034F
:100060000C9413030C9413030C9413030C941303B8
:100070000C9413030C9413030C9413030C941303A8
:100080000C9413030C9413030C9413030C94130398
:100090000C9413030C9413030C9413030C94130388
:1000A0000C9413030C9413030C94130314471A00B9
:1000B00008001500170004001600074609000A0092
:1000C0001D221B2806001900050000000000E300A7
:1000D00091242B221C0018000C00120013000B00AE
:1000E0000D000E460F0028001100100036003721C9
:1000F0002A002C429041E700000000001E001F0073
:100100002000210022002E212F0038002D00870022
:100110002E222F0238022D0287020000000001006B
:1001200001000100230024002500260027003300E1
:1001300034003000320089003302340230023202CF
:100140008902010001000100000000001E021F02E0
:100150002002210222022E022F0238022D028702E3
:10016000E100E300E2009100E10000000000010076
:10017000010001002302240225022602890833021D
:1001800034023002320289022C009000010001008A
:100190004C000100010001000000000014471A009B
:1001A00008001500170004001600074609000A00A1
:1001B0001D221B2806001900050000000000E300B6
:1001C00091242B221C0018000C00120013000B00BD
:1001D0000D000E460F0028001100100036003721D8
:1001E0002A002C459044E700000000001E001F007C
:1001F00020002100220023021F0238002D002D02C2
:100200003545350038022E002D02000000000100A7
:1002100001000100230024002500260027003300F0
:1002200033022F00300089002E0225022F023002F7
:100230003102010001000100000000001E02340232
:100240002002210222023502350038022E002D0242
:10025000E100E300E2009100E10000000000010085
:1002600001000100240234002602270231002E0280
:1002700025022F02300231022C0090000100010003
:100280004C000100010001000000000029002B00CB
:10029000000000000000E000010038021E02000023
:1002A000E100E300E2009100010000000000010015
:1002B00001000100000000005200000000000000EA
:1002C000500051004F0000000000900000000000AE
:1002D0004C000100010001000000000000002B00A4
:1002E000000000003A000000000000000000400094
:1002F000E10000000000000001000000000001001B
:10030000010001003B003C003D003E003F00410079
:100310004200430044004500010001000000285253
:10032000295201000100010000000000207821781E
:100330002378257827782B782C782D782E782F78AD
:1003400030783178327800000000000000000100B1
:100350000100010000000000000040524352000074
:100360000000000000000000007C00000000000011
:10037000000001000100010000000000000000007A
:10038000000000002A2B28000000000000000000F0
:100390000000000000000029000000002C1E342096
:1003A000212224342627252E362D3738271E1F20BC
:1003B0002122232425263333362E37381F04050601
:1003C0000708090A0B0C0D0E0F1011121314151645
:1003D0001718191A1B1C1D2F3130232D3504050643
:1003E0000708090A0B0C0D0E0F1011121314151625
:1003F0001718191A1B1C1D2F3130354C0000000036
:1004000000000000000000000000000000000000EC
:1004100000000000000000000000000000000000DC
:100420007E0F00D4FFFFFFC70000007810034B00D1
:100430004C00450043002D003000320000001E0338
:10044000740061006B006100730068006900630064
:100450006F006D00700061006E0079000000040301
:10046000090409025B00030100A0FA09040000016D
:100470000301010009211101000122440007058147
:100480000308000109040100020300000009211112
:100490000100012222000705820320000107050355
:1004A00003200001090402000103000000092111DA
:1004B00001000122B600070584032000011201009B
:1004C000020000000863740210000101020001062E
:1004D00060FF0961A1010962150026FF00952075E2
:1004E0000881020963150026FF0095207508910216
:1004F000C005010902A10185020901A10005091930
:1005000001290815002501950875018102050109D9
:100510003009311581257F95027508810609381546
:1005200081257F950175088106050C0A3802158121
:10053000257F950175088106C0C005010980A101CC
:10054000850319012AB700150126B700950175101A
:100550008100C0050C0901A101850419012AA0022E
:10056000150126A002950175108100C0050109063C
:10057000A1018506050719E029E715002501950861
:10058000750181020507190029EF1500250195F075
:10059000750181020508190129059505750191026A
:1005A000950175039101C005010906A1010507190F
:1005B000E029E7150025019508750181029501756F
:1005C0000881010507190029FF150026FF0095067F
:1005D00075088100050819012905150025019505F3
:1005E00075019102950175039101C00011241FBE90
:1005F000CFEFDAE0DEBFCDBF11E0A0E0B1E0E4E88C
:10060000F5E502C005900D92A03CB107D9F722E0B4
:10061000A0ECB1E001C01D92A83FB207E1F70E9433
:1006200013150C946E2A0C9400008930B8F46830CD
:10063000A8F4453098F450E095E0699F400D511DB5
:100640001124FA0198E2899FE00DF11D1124EE0FAB
:10065000FF1FE455FF4F85919491089581E090E04C
:10066000089581E008950E943103089581E008957E
:100670000E94310308950E943803089508950E944E
:100680003E030895A6E0B0E0E8E4F3E00C94CA2944
:1006900049835A839E833091C70189819A813111A0
:1006A0001AC03E81332399F0222389F00E94DC088E
:1006B000182F682F89819A810E94B80869817A81F0
:1006C000812F0E941F102696E3E00C94E6290E94D9
:1006D000CA08182FF3CF0E94DC0869817A81F1CF14
:1006E000FC01262F40815181628173818481958133
:1006F0000E9442030895CF93DF93EC0161E00E94D2
:100700007003BE010E943303DF91CF910895CF9310
:10071000DF93EC0160E00E947003BE010E943F0382
:10072000DF91CF91089581E008950E949303089589
:10073000CF93C82F0E948D078C2F0E9495032FEF17
:1007400084E39CE0215080409040E1F700C000002D
:10075000CF91089581E00E9498030E94932008950C
:1007600080E00E9498030E94A42008950F931F9395
:10077000CF93DF938C0161E00E947003EC01B8011C
:100780000E94F61C811106C080E0DF91CF911F917D
:100790000F910895B801CE010E943B038823A1F375
:1007A000B801CE010E94031C882371F3B801CE0169
:1007B0000E943017882341F3B801CE010E9406172A
:1007C000882311F3B801CE010E94471C8823E1F26F
:1007D000F8018581882361F0C330FCE7DF07E9F089
:1007E00058F4C115ECE7DE07A9F0C130DC47B9F0D9
:1007F000C8010E943603C9CFCB358CE7D807A9F0D2
:10080000CC35ECE7DE0771F0CA35DC4789F70E948A
:10081000540DEECF0E94AA03B7CF0E945C0D0E9438
:10082000B003B2CF0E944A0DE3CF0E94580DE0CF33
:100830000E94A91F0E94380408950E943C040E944F
:10084000AE1F089581E008950895CF93DF93D82FC8
:100850000E942204C82F882319F08D2F0E9424049F
:100860008C2FDF91CF91089508950E94250408955B
:1008700080E00E94350408950E94E21D0E94350424
:100880000895CF930E94E21DC82F8091C2018C175A
:1008900079F0C093C2010E9438206093C301709325
:1008A000C4018093C5019093C6018C2F0E9435042A
:1008B000CF910895ADE0B0E0E0E6F4E00C94CB29F0
:1008C000488759876A877B878C879D8791110E940B
:1008D0005A0C1F8286E0FE013896DE0111960190C7
:1008E0000D928A95E1F78D8181110DC029813A81A0
:1008F0004B815C816D817E818F810E94A40B2D963E
:10090000E2E00C94E729CE0101960E947B0381115D
:10091000EDCFF5CFFC012481213021F4808191813C
:100920000E940E090895662329F00E9491180E94E2
:10093000641908950E94EB18FACFCF93C82F88232B
:1009400099F08CEF8C0F813A88F48C2F0E94891ECD
:10095000882329F08C2F0E94291F0E94EE0C8C2FD7
:100960000E94121F0E94EE0CCF91089580E28C0F1E
:10097000883048F4C77081E001C0880FCA95EAF753
:100980000E943D0CEFCFEBE5EC0FE33040F4F0E0DC
:10099000E759FE4F808190E00E941D1EE5CFE8E5FB
:1009A000EC0FEB3150F4F0E0EE0FFF1FED5CFE4F6B
:1009B000808191810E94421ED7CF83E38C0F8331C7
:1009C00098F661E08C2F0E949304CECF882381F1AA
:1009D0009CEF980F913A28F40E94291F0E94EE0C78
:1009E000089590E2980F983050F4877091E001C01C
:1009F000990F8A95EAF7892F0E94430CEFCF9BE568
:100A0000980F933028F490E080E00E941D1E089516
:100A100098E5980F9B3128F490E080E00E94421EF8
:100A2000089593E3980F933118F460E00E949304C3
:100A300008951F93CF93DF93182FEB010E949D041D
:100A4000209739F4812F0E94E604DF91CF911F9106
:100A500008958FE99FE00197F1F700C0000021970A
:100A6000EFCF70E060E0893311F460E570E00E9440
:100A700019050895882321F00E943D0C0E94EE0C78
:100A80000895882321F00E94430C0E94EE0C0895E3
:100A9000B0E0A0E0EEE4F5E00C94C4296C01D62FA0
:100AA000C72FFC011581068102950F700E94330C3F
:100AB000E82E8823F9F0E12E1123E1F08C2F807FBE
:100AC000803461F080E28D0F883008F18C2F807EB9
:100AD000803221F4D230D8F00023C9F08091D002C6
:100AE00082FF15C082E00E941E0D0E94330C91E02F
:100AF000E82EE926BC2EB2949FE0B922FBE0FB155C
:100B0000B8F1EB2DF0E0E059F54D0C94AE29E12C55
:100B1000F1CF0C2F0F70C07F11F00295007F1123D1
:100B200099F0002359F080E28D0F883010F0D11138
:100B300007C0802F0E943D0C0E94EE0C8D2F5AC0E2
:100B4000802F0E944D0CF8CF8D2F0E94E6040023C9
:100B500079F080E28D0F883010F0D11104C0802F21
:100B60000E94430C03C0802F0E94530C0E94EE0C85
:100B7000EB2DE850FF0B349720F40E94E21D0E94F9
:100B80003504EE2089F00E942F0C80FD0DC0F60187
:100B900015820E94290C0E941608C6010E94540763
:100BA0000E94290C0E942608CDB7DEB7E9E00C941C
:100BB000E0292C2F2F70F22EC07FC03219F0F29452
:100BC00080EFF822DD2341F0D130D1F1112309F477
:100BD00044C00023F1F0B2CF8091D00282FD15C055
:100BE000112359F0FF2029F08F2D0E943D0C0E9407
:100BF000EE0C80E00E949D04BBCF80E00E94E604E2
:100C0000FF2009F4B5CF8F2DABCF112369F001116F
:100C100004C08F2D0E943A05ABCF013009F0A8CF58
:100C20008F2D0E94710CA4CF0111A2CF8F2D0E9495
:100C300041058F2D0E947D0C8F2D0E94610C98CF55
:100C4000112321F0063008F093CFE3CF053008F0F0
:100C50008FCF8F2D0E9441058BCF0023D1F3D93345
:100C600049F43FEF87EE93E0315080409040E1F748
:100C700000C000008D2F0E94E6047ACF8C2F86954D
:100C80008695837069F0813009F072CF8D2F9C2F8B
:100C90009370111102C080E090E00E94421E68CF64
:100CA0008D2F9C2F9370111102C080E090E00E9464
:100CB0001D1E5ECF612F8D2F0E94930459CF8C2F64
:100CC0008370A1F5111154CF4D2F42954695477071
:100CD000440F440F2D2F2F7030E0042E02C0220F3E
:100CE000331F0A94E2F790E080E0D4FF09C08FE060
:100CF00090E002C0880F991F4A95E2F78095909581
:100D0000C695C695C370822B932BC23049F058F418
:100D1000C13019F00E94E6072BCF0E94DD0728CFD3
:100D20000E94EF0725CF0E94DA0722CF8695112374
:100D300011F08C2F8170882309F41ACF4D2F429522
:100D400046954770440F440F2D2F2F7030E0042E2E
:100D500002C0220F331F0A94E2F790E080E0D4FF34
:100D600009C08FE090E002C0880F991F4A95E2F712
:100D700080959095C695C695C370822B932BC230F3
:100D800049F058F4C13019F00E945108F1CE0E9488
:100D90004808EECE0E945A08EBCE0E94FE07E8CE2D
:100DA000CF70112329F08C2F0E9416088D2F32CF7F
:100DB0008D2F0E9441058C2F0E942608D9CED23F4C
:100DC00041F160F4D03FB9F0D13F81F0112309F433
:100DD00043C00111B3CE8C2F8F711FC0D33F01F1DF
:100DE000D43FA1F78091D00282FD24C08C2F8F7157
:100DF000112311F312C0112341F0053008F0B8CED1
:100E00008C2F8F710E943808B3CE063008F0B0CE18
:100E1000F7CF8C2F8F711111CFCF0E941608A8CE5B
:100E2000112329F08C2F8F710E940A08A1CE0E94F5
:100E300005089ECE112331F063E08C2F8F710E9444
:100E4000000D96CE81E00E941E0D023008F490CE77
:100E500082E00E941E0D8CCE002359F0D93309F098
:100E600009CFEFEFF7EE23E0E150F0402040E1F74B
:100E7000FFCE8C2F8F71A0CF0F931F93CF93DF9353
:100E8000EC01688179818D810E9419098C010E9491
:100E900063080E94D907B801CE010E944805DF917E
:100EA000CF911F910F910895CF93DF93EC018C8127
:100EB000882399F0CE010E94B603811111C00E94CF
:100EC000330C882351F08D81882339F08091D00232
:100ED00082FF03C082E00E941E0DDF91CF91089532
:100EE000CE010E943C07CE010E948703F6CF90E01E
:100EF00080E00E941D1E90E080E00E94421E0E9441
:100F00005A0C0E94EE0C0E9480190E9464190895E8
:100F10000E94401F0E94770708950E944A0C0E9479
:100F20008807089592959F70963091F058F4925FDB
:100F30009F70923058F4803F19F030F4883E30F4BE
:100F400081E008959A5FF4CF843FD1F380E0089563
:100F5000883EB0F3813FD1F7F3CFFC0124812223F7
:100F600039F0808191810E940E090E9492070895B4
:100F700080E00895A6E0B0E0E0ECF7E00C94CB2927
:100F80002696E2E00C94E729A7E0B0E0EAECF7E06F
:100F90000C94CB292796E2E00C94E72908950E944F
:100FA000CE0708950E94CF079093DF018093DE0162
:100FB000089508950E94D20708952091DE0130918E
:100FC000DF01822B932B0E94D20708952091DE012E
:100FD0003091DF01822393230E94D207089520914C
:100FE000DE013091DF01822793270E94D207089506
:100FF0000E94CE0708950E94F80708950E94FB07FB
:101000009093DD018093DC01089590E080E00E94E0
:10101000FE07089521E030E0A90102C0440F551FEA
:101020008A95E2F7CA010E94FE07089521E030E0A8
:1010300002C0220F331F8A95E2F78091DC01909164
:10104000DD01822B932B0E94FE07089521E030E002
:1010500002C0220F331F8A95E2F7209530958091C8
:10106000DC019091DD01822393230E94FE07089505
:1010700021E030E002C0220F331F8A95E2F7809111
:10108000DC019091DD01822793270E94FE070895DD
:101090002091DC013091DD01822B932B0E94FE0711
:1010A00008952091DC013091DD01822393230E9479
:1010B000FE0708952091DC013091DD0182279327FE
:1010C0000E94FE0708950895262F277091E001C021
:1010D000990F2A95EAF723E0769567952A95E1F727
:1010E000660F771F660F771FFA01E60FF71F50E0B4
:1010F00040E0682F70E08191DF0111979B01042E81
:1011000002C0369527950A94E2F721702195282789
:10111000292328272C934F5F5F4F4430510559F7FF
:101120000895A82FA77023E0969587952A95E1F753
:10113000880F991F880F991FFB01E80FF91F50E0D6
:1011400040E080E0219130E00A2E02C036952795DC
:101150000A94E2F721703327042E01C0220F0A946B
:10116000EAF7822B4F5F5F4F4430510559F70895DE
:10117000262F983070F4853060F4682F70E085E099
:10118000989F600D711D112448EC51E0822F0E9440
:1011900064080895292F983068F4853058F490E059
:1011A00068EC71E035E0239F800D911D11240E94B1
:1011B0009108089580E00895B0E0A0E0E2EEF8E044
:1011C0000C94C4297C010091DC011091DD01809117
:1011D000DE019091DF01082B192BC9E0D0E0CC246F
:1011E000C394D12CBC2EC6010C2E02C0880F991FAF
:1011F0000A94E2F780239123892B49F4219790F7F1
:10120000B12C8B2DCDB7DEB7E9E00C94E029B70106
:101210008C2F0E942B10019789F3F3CFCF93DF938C
:10122000EC010E94DC08BE010E942B10DF91CF91DF
:1012300008951F93CF93DF93EB019091C7019923FA
:1012400039F0CB010E940E09DF91CF911F910895D3
:10125000882369F0CB010E94DC08182F682FCE018B
:101260000E94B808BE01812F0E942B10EDCFCB0148
:101270000E94CA08182FF6CFE1E0F0E0DF0102C0BB
:10128000AA0FBB1F6A95E2F7BD01DF0102C0AA0FDA
:10129000BB1F4A95E2F7AD01462B572B02C0EE0F5C
:1012A000FF1F2A95E2F79A012823392324173507CF
:1012B00019F48E2B9F2B0895E095F0958E239F2394
:1012C0000895242F462F682F8091DC019091DD0135
:1012D0000E943C090E94FE0708951F93CF93DF935D
:1012E000C091E00117E08091E1018C1304C0DF910F
:1012F000CF911F910895D0E01C9FF0011D9FF00D2C
:101300001124EE51FE4F208131814281538164814D
:10131000758186810E94C4072196C770E4CF209111
:101320001A0230911B0240911C0250911D026091E3
:101330001E0270911F02809120020E94C40708952E
:10134000CF93DF9380912002807F09F04DC0809180
:101350001F02882309F448C0E091E0015091E101A7
:10136000C0911B02D0911A0260911C0270911D0263
:1013700047E05E17C9F18E2F90E0E49FF001112441
:10138000EE51FE4F2481222391F1489FF001499FA5
:10139000F00D1124DF01AE51BE4F11962C91119723
:1013A0002C1325C02C912D1322C015962C91159726
:1013B00021111DC012962D913C91261B370B283C04
:1013C0003105A8F4809120028F7080618093200203
:1013D000E851FE4F80818F70806180838AE192E0C6
:1013E0000E9454070E946D09DF91CF910895FC017E
:1013F0003196E770BECF482F2091E0019091E10136
:1014000057E0291302C080E0089530E0529FF001B8
:10141000539FF00D1124EE51FE4F8181681306C0D9
:101420008081481303C085818111EECF2F5F3F4F2C
:101430002770E7CFA4E1B0E0E0E2FAE00C94C12924
:101440008C0186E0F801DE011F9601900D928A95CD
:10145000E1F7F8018481E5809AE1A92E92E0B92EA6
:1014600090911E0291111FC08823D1F0EE20A9F0A7
:10147000C8010E94AD07F82E882379F087E0F801B3
:10148000D50101900D928A95E1F7C5010E948A0469
:101490000E94A0090E948F095FC0C8010E945407E2
:1014A000FF24F39459C0C080D18082809380F09053
:1014B0001F0220911C0230911D02A401421B530BFC
:1014C000FF2009F4F9C0483C510508F0A7C0882363
:1014D00009F442C090911B0280912002282F207FA6
:1014E00009F05CC09D1116C090911A02C91212C079
:1014F000E1104EC08F708061809320020E948F099E
:101500008AE192E00E94540780912002F8018683CC
:10151000F12C22C0E1103CC06D2D8C2D0E94FB09E6
:101520006D2D8C2D0E94FB09E82E8111F1CFCF8605
:10153000D88A8F8598890E940E09292F22952F70AD
:10154000243078F49F702230A8F09923B9F0F80184
:101550009681907F99F4FE2C8F2D6496ECE00C948C
:10156000DD292A5F2F70223068F0C8010E945407DD
:10157000EF2CF1CF992311F0882369F3805E883036
:1015800050F3F3CF803F38F3815F833070F7E3CFC0
:1015900080912002816080932002BACF9D1113C0F8
:1015A00090911A02C9120FC0E1100DC08683C801C4
:1015B0000E94540787E0F801AAE1B2E001900D9281
:1015C0008A95E1F767CFC8010E94AD07882309F427
:1015D00064CFEE2009F461CF80912002803288F040
:1015E00020911A0230911B02398728879B868A86B0
:1015F00090911E029C871D868E87CE0108960E94C0
:10160000540787E0F801AAE1B2E001900D928A95B3
:10161000E1F70E94A0090E948F0942CF9091200219
:10162000292F207FA1F4682D9A8A898AA6017A89B8
:101630009E2D0E94BA078AE192E00E94540787E03B
:10164000F50111928A95E9F70E948F0961CF8823ED
:1016500009F482CF80911B028D1110C080911A0273
:10166000C8120CC0E1100AC09683C8010E9454073A
:1016700087E0F50111928A95E9F76ECFC8010E94C3
:10168000AD07882309F409CFEE2009F406CF809135
:101690002002803208F4B5CF20911A0230911B024B
:1016A0003A8329839C828B8290911E029D831E82A5
:1016B0008F83CE010196A3CF483C5105B8F588230E
:1016C00009F4EECEFE2CEE2009F4E7CE80911B0249
:1016D0008D111EC080911A02C8121AC0809120027A
:1016E00080FD0DC0982F907F51F08683903F09F4C4
:1016F0005ECF982F907F905F8F70892B57CF87E0B8
:10170000F801AAE1B2E001900D928A95E1F724CFA9
:10171000C8010E94AD07811174CF809120028160C1
:1017200080932002C8010E94540716CF682D9A8A20
:10173000898AA6017A899E2D0E94BA0787E0F50161
:1017400011928A95E9F7A6CEAEE0B0E0EAEAFBE0B6
:101750000C94CA29288739874A875B876C877D87DD
:101760008E87CE0108960E941A0A8823B1F06C85F4
:10177000662341F0288539854A855B857D858E8580
:101780000E94C40717E08091E0019091E101891364
:101790003DC02E96E3E00C94E62987E0FE013896E2
:1017A000DE01119601900D928A95E1F78C858823D0
:1017B00049F32091E10130E0C90101968770992732
:1017C0004091E0014817190699F097E0929FD001E7
:1017D000939FB00D1124AE51BE4FFE013196019082
:1017E0000D929A95E1F78093E1010E946D09CACFAD
:1017F0000E948D071092E1011092E00187E0EAE17A
:10180000F2E0DF011D928A95E9F7BCCF819FC0010C
:1018100011248E519E4F0E941A0A882309F4B9CFD1
:10182000E091E0011E9FF0011124EE51FE4F208156
:101830003181428153816481758186810E94C40710
:101840008091E00190E00196877099278093E001F4
:101850009ACF8091490286958695869508958091C4
:1018600049028770089590914902977081E009F4C8
:1018700080E0089580917502089590917502892BFA
:1018800080937502089580959091750298239093A6
:101890007502089510927502089590917402892B33
:1018A0008093740208958095909174029823909388
:1018B0007402089510927402089508950E945D0CB8
:1018C000089590914A02292F282331F08095892389
:1018D00080934A020E945E0C089508950E946D0C48
:1018E000089590914B02292F2823281729F0982B2F
:1018F00090934B020E946E0C089590914B02292FF9
:10190000282331F08095892380934B020E946E0C2E
:10191000089580914B02882329F010924B0280E0B9
:101920000E946E0C0895CF93C0917502809174024D
:10193000C82B80914B02882331F0C82B0E94671E70
:1019400081110E94890C8C2FCF910895CF93DF9342
:10195000C0910201D09103010E94930C8883C09131
:101960000201D091030148E050E061E472E0CE0151
:101970000E94062A892B59F088E0FE01A1E4B2E01A
:1019800001900D928A95E1F7CE010E94F61DDF913C
:10199000CF910895CF93DF93C0910001D0910101C1
:1019A0000E94930C8983C0910001D091010140E213
:1019B00050E061E272E0CE010E94062A892B59F0C4
:1019C00080E2FE01A1E2B2E001900D928A95E1F77A
:1019D000CE010E94011EDF91CF91089580913201C6
:1019E000882339F08091CF0287FF03C00E94CA0C80
:1019F00008950E94A60C089508950E94FC0C089575
:101A00009091D00292FF11C098E0899F900111241B
:101A1000622B609349020E941608809149028695C4
:101A2000869586950E94FD0C08950E9416080895DB
:101A30001092490280E00E94FD0C089590914902A5
:101A40008095892380934902282F277069F489178C
:101A500059F09091D00292FF07C0869586958695A1
:101A60000E9426080E94180D08959091D00292FBC2
:101A7000222720F9281769F080FB92F99093D00271
:101A80008091CF029091D0020E947E0D82E00E9450
:101A90001E0D08958091D00282FB882780F991E085
:101AA00089270E94350D089581E00E94350D089523
:101AB00080E00E94350D08956FEF7FEF90E080E0A9
:101AC0000E94582A089590E080E00E94242A853ED2
:101AD0009E4F19F40E94901C089580E0089582E0C2
:101AE00090E00E941C2A089583E090E00E941C2A46
:101AF000089584E090E00E94242A0895BC0184E0C7
:101B000090E00E94582A0895AB01BC018FE090E05C
:101B10000E944C2A0895AB01BC0183E190E00E9431
:101B20004C2A089560E070E0CB010E948B0D08956F
:101B300060E070E0CB010E94840D0E94920D089538
:101B4000A8E0B0E0E6EAFDE00C94CB2965EE7EEF7C
:101B500090E080E00E94582A60E082E090E00E94DD
:101B60003A2A81E090E09093DF018093DE0161E00A
:101B700083E090E00E943A2A60E074E184E090E023
:101B80000E94582A60E086E090E00E943A2A60E0D5
:101B900087E090E00E943A2A40E050E0BA0188E0F5
:101BA00090E00E944C2A60E083E290E00E943A2A92
:101BB00060E08CE090E00E943A2A60E08DE090E0E6
:101BC0000E943A2A19821A821B821C821D821E825E
:101BD0001F82188648E050E067E170E0CE01019670
:101BE0000E942A2A40E050E0BA018FE190E00E9472
:101BF0004C2A80E00E94A91C0E94D81C0E94980DCB
:101C00002896E2E00C94E7290E94A00D0895682F21
:101C10008EE090E00E943A2A0895A6E0B0E0E3E169
:101C2000FEE00C94C9290E942C208C018091760240
:101C3000909177028017910781F019821A820E9491
:101C40002C20682F49815A81792F80E090E00E94F2
:101C50005A0410937702009376022696E4E00C94DF
:101C6000E5290E9447116093840270938502809356
:101C70008602909387026093800270938102809322
:101C80008202909383020895089508950E94440E5D
:101C9000089508950E94490E089581E0089581E60F
:101CA00091E10E942A150E94450E0E94460E089559
:101CB0000E941F130895089508950E945B0E0E94CC
:101CC0005C0E08950E94630D811102C00E94040EF3
:101CD0000E946F0D809388020E94790D9093D0022C
:101CE0008093CF020E944D150E94740D90E00E94D7
:101CF000DA078091DC019091DD010E94FB070895D5
:101D00000E9423200E9421110E94E81C0E9425139A
:101D10000E9476120E94620E0E9434040E945015A6
:101D20000E9437130E944A0E0895A6E0B0E0EBE946
:101D3000FEE00C94C2290E944D0E81110CC00E943D
:101D40000D0E0E941F130E94A2190E9441042696A4
:101D5000EBE00C94DE290E94991288E7A82E82E01D
:101D6000B82E750110E0F70101917F01812F0E94CB
:101D70006B111F5F183009F441C00817A1F380915F
:101D8000880281FD0E9471110E94580EC82E10E039
:101D900099249394812F0E946B11082FF501819152
:101DA0005F01081729F1D02ED826F12CEE24E394F8
:101DB0008D2D8E21A9F0CC2099F0F9821A830E94F2
:101DC0002C209C838B839D8291E0802F8E2109F4AF
:101DD00090E049815A816B817C818D810E945A04F7
:101DE000F394EE0CF5E0FF12E3CFF5013197008399
:101DF0001F5F183079F60E94310EA3CF0813BFCFB2
:101E00009ECF1F93CF93DF930E943010EC01C1153A
:101E100080E5D807F0F5C11580E4D80708F09CC02C
:101E2000C03ED10520F5CD3CD10508F082C0C83AAE
:101E3000D10578F4C53AD10508F073C0C130D10599
:101E400019F1209709F1C430D105F0F4D0E0C0E0D9
:101E50001BC0C33CD105D0F7C85AD0E0CC0FDD1F62
:101E6000C459DE4F0990D881C02DD4640DC0C1156E
:101E700080E2D80708F0D1C0C11581E0D80708F08A
:101E80005AC0C83ED10510F7CE01DF91CF911F9106
:101E90000895C03682E5D80718F5C03482E5D80722
:101EA00008F06BC0C03282E5D80708F05FC0C115EA
:101EB00082E5D80708F497C02C2F2695269580E256
:101EC000289F900111248C2F8370C1E0D0E002C0C4
:101ED000CC0FDD1F8A95E2F7C22BD32BDD68D4CF60
:101EE000C03A82E5D80760F4C03882E5D80708F424
:101EF00059C0CF71D0E0DC2FCC27C46FD06AC4CFDB
:101F0000C03C82E5D80708F462C0C03E82E5D8072D
:101F100008F09CCFDC2FCC27CC27DF71C06FD06AB4
:101F2000B3CFC55AD0E0CE55DE4FC881D0E0D064E3
:101F3000ABCFD065A9CF8D2F0E94D210182FCE0124
:101F400099270E943010C12FD0E0DC2FCC27CC275E
:101F5000DF71C82BD92B98CFCE0199270E94301062
:101F6000CC27DF70C82BD92BD06A8ECFCF71D0E0B1
:101F7000DC2FCC27C16FD06A87CF2C2F26952695D2
:101F8000277080E2289F900111248C2F8370C1E07C
:101F9000D0E002C0CC0FDD1F8A95E2F7C22BD32B15
:101FA000DC6872CF2C2F26952695277080E2289F1B
:101FB000900111248C2F8370C1E0D0E002C0CC0FBF
:101FC000DD1F8A95E2F7C22BD32BDA685DCF8C2F09
:101FD0008F710E94D210C82FD0E0DC2FCC27CC27E5
:101FE000DF71D06251CF8C2F8F710E94D21055E0DB
:101FF000D695C7955A95E1F7CF70D0E0DC2FCC2766
:10200000282F30E084FF05C044E0220F331F4A959B
:10201000E1F7C22BD32BD06937CF8D2F8F710E9460
:10202000D210182FCE0199270E943010C12FD0E076
:10203000DC2FCC27CC27DF71C82BD92BD2CF462F52
:10204000783030F4653020F4672F0E942016089510
:1020500090E080E008950E941F100E94010F0895F3
:1020600082389105B9F1B0F48133910509F47DC04E
:1020700048F48932910509F46DC08A32910509F45A
:102080007BC008958533910509F45FC089339105BC
:1020900009F10895833E9105D9F138F4803E910508
:1020A00029F1823E910579F10895863E9105D9F195
:1020B000873E910509F43EC0843E910541F520918B
:1020C000D00221FF24C08091CF0284FD19C087EE89
:1020D00090E008952091CF02237009F05AC020911A
:1020E000D00223FF14C089E290E008952091CF022E
:1020F00020FD38C03091D00230FF09C024FF43C01A
:1021000090E080E008952091CF0222FDF7CF08955E
:102110002091CF0222FD3AC03091D00230FD39C06B
:1021200024FFF5CFEDCF2091CF0223FFF0CF24FD88
:10213000E7CFCDCF2091CF0223FD2EC03091D0022A
:1021400031FFEECF84EE90E008952091CF0225FF7D
:10215000DECFC9CF2091CF0225FD21C02091D00232
:1021600023FFD5CF89E390E0D2CF2091CF0226FF85
:10217000CECF8AE290E008952091CF0226FFC7CF0C
:1021800081E390E0089583EE90E0089582EE90E080
:10219000089580EE90E0089586EE90E0089585E33E
:1021A00090E008959091CF0292FF10C041E0282F57
:1021B0002471243009F040E031E0282F28712830C4
:1021C00009F030E0431711F02CE0822793FF10C094
:1021D00041E0282F2471243109F040E031E0282F1C
:1021E0002871283109F030E0431711F02CE08227E4
:1021F0003091D00230FF10C051E0282F21712130E2
:1022000009F050E041E0282F2871283009F040E023
:10221000541711F029E0822731FF10C041E0282F28
:102220002171213109F040E031E0282F2871283157
:1022300009F030E0431711F029E0822794FD877EF2
:1022400008951092D1021092D2021092D3021092ED
:10225000D4020895CF92DF92EF92FF926B017C013E
:102260000E941F1381110EC00E943820C61AD70A7F
:10227000E80AF90AC092D102D092D202E092D302C7
:10228000F092D402FF90EF90DF90CF9008950F93DB
:102290001F930E941F13882329F00E9438201F914A
:1022A0000F9108950E9438200091D1021091D2021E
:1022B0002091D3023091D402600F711F821F931FAF
:1022C000EECF80E0089508950E9463110895089567
:1022D0000E9467110895E82FF0E0E252FD4F8081DF
:1022E0000895089580EA8A95F1F7089500C0089549
:1022F0000E947211089508950E947B110895EF9233
:10230000FF921F93CF93DF9300D000D0CDB7DEB7FD
:102310000E941F13182F6091E602882309F447C01A
:1023200019821A821B821C82862F90E09E012F5FE9
:102330003F4F7901B90182529D4F0E944513882376
:10234000E9F08091D50290E044E050E0B70182527C
:102350009D4F0E94062A21E020938902892BC9F40F
:1023600010E00E946811812F0F900F900F900F9036
:10237000DF91CF911F91FF90EF9008958091890296
:10238000882371F384E0F70111928A95E9F710929E
:102390008902E091D502F0E0E252FD4F89819A81F5
:1023A000AB81BC8180839183A283B383DACF70E059
:1023B00062527D4F8091D50290E082529D4F0E94E3
:1023C000CC130E947C11CFCFF894E82FE295EF70E8
:1023D000F0E031A1282F2F7081E090E001C0880F3C
:1023E0002A95EAF7982F9095932391A392A1892B90
:1023F00082A378940895CF93DF9384EF0E94E41131
:1024000085EF0E94E41186EF0E94E41187EF0E949D
:10241000E411C5EAD1E089918F3F11F00E94E411E7
:1024200081E0CA3AD807B9F7DF91CF910895B0E0BB
:10243000A0E0EDE1F2E10C94C529EC01D62E062FC7
:1024400010E0C80186559E4F7C01FC0180818F3FC2
:1024500009F445C0F894E82FE295EF70F0E091A1FF
:102460008F7021E030E001C0220F8A95EAF7892FB2
:10247000822B81A382A12095282322A378940E94F5
:102480007611E5EAF1E04AEA51E031E0C12C219110
:102490002F3F51F1A22FA295AF70B0E090968C9192
:1024A00090E02F7002C0959587952A95E2F780FD00
:1024B0001BC0832FC82A330F4E175F0741F7F70160
:1024C00080818F3F11F00E94E41161E0C11001C0D2
:1024D00060E08D2D0E947811C00FD11FC882CDB74A
:1024E000DEB7E8E00C94E12980E0E4CF80910401BC
:1024F0008091040194E0811190E09093E60284E0E1
:10250000891B8093D5020E94FB1188E0EEEDF2E07A
:10251000DF01982F1D929A95E9F7E6EDF2E0DF01D1
:102520001D928A95E9F784E00E94D7120E946411F7
:102530000895A8E0B0E0EFE9F2E10C94C8298E011B
:102540000F5F1F4F88E0F80111928A95E9F7F12C8F
:102550006F2DC8010E941712F394F4E0FF12F8CF18
:1025600048E050E0B80186ED92E00E94062A21E0A2
:10257000009709F420E0892B41F088E0F801A6EDEE
:10258000B2E001900D928A95E1F76091E60270E069
:1025900062527D4F44E086ED92E00E94D812182FDF
:1025A0000E947F11812B2896E5E00C94E429089580
:1025B000B0E0A0E0EEEDF2E10C94C5296C017B01E6
:1025C000042FC22F222379F081E080938C020E9495
:1025D0002C2090938B0280938A0280E0CDB7DEB7E7
:1025E000E8E00C94E129D0918C02DD23B1F38091D5
:1025F0008A0290918B020E944420059770F310E0AC
:10260000A801B601C7010E94062A892B31F0A80152
:10261000B601C7010E94132ACD2F10928C028C2F75
:10262000DDCFCF930E948D29C82F811102C00E9457
:1026300088298C2FCF9108958091900208958091E0
:102640008F0208950E941F1308950E941113809312
:102650008F020E942213809390020E941C13809389
:1026600004010E941F1381110E947B1308950E9490
:102670001F13811102C00E947E13089581E0909182
:1026800091029A3008F080E008950F931F93CF9342
:10269000DF93EC018B01809191028A30B8F4B8018C
:1026A000CE010E94C913C82F811122C080919102CE
:1026B0008F3FB9F40E942C2090938E0280938D025C
:1026C0008C2FDF91CF911F910F91089580918D02F2
:1026D00090918E020E944420843F914000F7C0E018
:1026E000EFCF8F5F809391028A3020F7C1E0E8CF6F
:1026F00010929102E5CF0E94092108950E940C21B9
:102700000895B0E0A0E0E7E8F3E10C94C629790170
:10271000C82F880FDD0B41155105A9F0FE0193E08C
:10272000EE0FFF1F9A95E1F7EB5FFE4F81819281DB
:102730008E569D4F208130E04217530708F49A01CE
:10274000A9010E94132ACE010E94F521D82E8823C8
:10275000D1F001151105B9F083E0CC0FDD1F8A958A
:10276000E1F7FE01EB5FFE4F438150E004171507D0
:1027700008F4A801CB5FDE4F6C817D816E567D4FE2
:10278000C7010E94132A8D2DCDB7DEB7E7E00C9468
:10279000E2290E94C31408950E94DA140895A4E067
:1027A000B0E0E5EDF3E10C94C9296091A7027091C6
:1027B000A8028091A9029091AA020E94532011E0E0
:1027C000643671058105910518F10E9447116E5F0D
:1027D0007F4F8F4F9F4F69837A838B839C8310E059
:1027E00000E030E020E044E050E0BE016F5F7F4F4A
:1027F00082E00E948113182F882351F00E94382014
:102800006093A7027093A8028093A9029093AA02F2
:10281000812F2496E4E00C94E529B0E0A0E0E3E108
:10282000F4E10C94C3297C015B016A010E943E1310
:1028300001E010E0882311F00AE010E0C1E0D0E0F0
:10284000B501C701F6010995811104C021960C1745
:102850001D072CF4CDB7DEB7EAE00C94DF29CC9F3E
:102860009001CD9F300D300D112490E080E045E3C4
:102870004A95F1F70000019682179307C1F7E0CF60
:10288000A5E0B0E0E6E4F4E10C94C3295B01E0903C
:10289000AE01F090AF0101E010E09E012B5F3F4FD1
:1028A00050E040E070E060E080E00E948113182F6B
:1028B000882309F44BC067018FEFC81AD80A6091CA
:1028C000A3027091A4028091A5029091A6020E9499
:1028D0005320643671058105910580F104E010E014
:1028E0009E012F5F3F4F50E040E070E060E081E0EC
:1028F0000E948113F82E64E070E0C6010E94511519
:1029000011E09D81981310E01F2159F10E94382099
:102910006093A3027093A4028093A5029093A602F1
:1029200089819A81AB81BC8180939F029093A002A0
:10293000A093A102B093A20211E013C064E070E082
:10294000C6010E9451159D818913C8CFF70181816D
:102950009281A381B48189839A83AB83BC83111153
:10296000DFCF80919F029091A002A091A102B0912F
:10297000A202F50180839183A283B383812F2596E0
:10298000EAE00C94DF290F931F93CF93DF93EC01C0
:102990008B0140E454E10E940D14882331F04FEC88
:1029A00053E1B801CE010E940D14DF91CF911F9128
:1029B0000F9108950F931F93CF93DF93C091AE01B2
:1029C000D091AF01CE01019624E0FB01DC01019022
:1029D0000D922A95E1F764E070E00E94511588831A
:1029E0006D817E818F81988500919B0210919C0260
:1029F00020919D0230919E02601771078207930714
:102A000051F060939B0270939C0280939D0290937F
:102A10009E020E942A11DF91CF911F910F9108957C
:102A20000E94950E08950E94C51F0E94F6230E94E1
:102A30004F0E0E9410240E94800E0E941D240E94AE
:102A400022240E9410150E943C240E94C4220E944D
:102A50005D0EF5CF9093C1018093C00108950E944F
:102A60005C0D089580E00E946B11817008950E94B2
:102A700099122FEF86E791E0215080409040E1F7D6
:102A800000C000000E9499120E943215882321F094
:102A90000E942F150E94932008950E9437150895D3
:102AA0000895FC01680F791F8FEF91E36E177F0780
:102AB00009F408952191822728E030E087FF06C0BD
:102AC000880F892721503109C9F7F0CF880FFACF35
:102AD0008AE0089550E0440F551F9AE0699F400D29
:102AE000511D112490E5899F400D511D1124CA01EB
:102AF000889608950F931F93CF93DF938A30C8F47D
:102B00006830B8F44530A8F40E946A158C010E9420
:102B10001C2AC82FD0E0DC2FCC27C80101960E94C8
:102B20001C2A9E01282BC901DF91CF911F910F9183
:102B3000089590E080E0F8CF0F931F93CF93DF9339
:102B4000122F032F8A3078F4683068F4453058F437
:102B50000E946A15EC01602F0E943A2A612FCE0173
:102B600001960E943A2ADF91CF911F910F9108950B
:102B70001F93CF93DF93D0E0C0E011C0412F6C2FA3
:102B80008D2F0E9415039C01412F6C2F8D2F0E94C9
:102B90009C151F5F153091F7CF5FC83011F010E022
:102BA000EDCFDF5FDA3041F7DF91CF911F910895CC
:102BB000EF92FF920F931F93CF93DF93EC018A0163
:102BC0007C01E60EF71ECE018896CE15DF0529F4AE
:102BD000CDB7DEB7E6E00C94E329C03223E0D2079C
:102BE00040F40E941C2AF80180830F5F1F4F21963A
:102BF000EACFF8011082F9CFB0E0A0E0E2E0F6E120
:102C00000C94C5297C016A018C01060F171FEC0189
:102C1000CE018896C017D10729F4CDB7DEB7E8E01A
:102C20000C94E129C03223E0D20740F4FE01EE19F2
:102C3000FF09EC0DFD1D60810E943A2A2196E8CF24
:102C40008A3038F4683028F4453018F40E947A1538
:102C5000089590E080E0089580E1089588EB90E089
:102C60000895EF92FF920F931F93CF93DF93EC01A0
:102C70008A017C01E60EF71ECE01885B9C4FCE15C3
:102C8000DF0529F4CDB7DEB7E6E00C94E329C83BB5
:102C9000D10540F40E941C2AF80180830F5F1F4F6A
:102CA0002196EACFF8011082F9CFB0E0A0E0EBE581
:102CB000F6E10C94C5297C016A018C01060F171FEF
:102CC000EC01CE01885B9C4FC017D10729F4CDB72A
:102CD000DEB7E8E00C94E129C83BD10540F4FE01E1
:102CE000EE19FF09EC0DFD1D60810E943A2A219624
:102CF000E8CFCF93DF93C8E4D3E060E0CE010E9439
:102D00003A2A2196C11584E0D807B9F7DF91CF910F
:102D10000895A8E0B0E0EFE8F6E10C94C329F82E9E
:102D20008FE08F1508F46EC08FEF93E00E941C2A8D
:102D3000811168C008E413E0F11035C0FE0131963E
:102D40006F0188E011928A95E9F77801FFEFEF1A99
:102D5000FF0AC8010E941C2A89831A82882309F469
:102D600051C08130D1F4580182E0A80EB11CC701D6
:102D70000E941C2A8A83882309F444C09FEF980F7D
:102D80009330F0F4780193E0E90EF11CC5010E9444
:102D90001C2A8B838823B1F11C8260E0C6010E944B
:102DA000341B8701D2CF011594E0190759F1C801EE
:102DB0000E941C2A811101C0FA940F5F1F4FBCCFE3
:102DC0007501843051F702E010E07501EFEFEE1A63
:102DD000FE0AC5010E941C2AF601E00FF11F808344
:102DE000882381F08C3741F4E2E0F0E0EC0FFD1F26
:102DF000E00FF11F1082D1CF0F5F1F4F5701073037
:102E0000110519F72896EAE00C94DF29CF93DF9398
:102E1000EB0186319C4711F50E943A0C9D81992364
:102E200099F08A7A91E009F490E09093AB028111D5
:102E300009C089E20E94121F0E94EE0C80E0DF911F
:102E4000CF91089585E3F6CF8091AB02811104C044
:102E500089E20E94291FF0CF85E3FBCF81E0EFCF0D
:102E6000CF93DF93EC01FB018581882309F4D2C065
:102E70009E0130572332310508F0B2C00E94790D0F
:102E80009093D0028093CF02FE01E150F047E232EE
:102E9000F10520F4E458F54D0C94AE298091CF0251
:102EA00081608093CF0293C08091D002886080932C
:102EB000D0028DC08091CF028260F3CF8091CF028B
:102EC0008460EFCF8091CF028860EBCF8091D002F9
:102ED0008160EDCF8091D0028260E9CF8091CF02F6
:102EE0008061DFCF8091CF028062DBCF8091CF0203
:102EF0008064D7CF0E948D078091CF028068D1CFA8
:102F00008091CF028C60CDCF8091D0028360CFCFF3
:102F10008091CF028E7FC5CF8091D002877FC7CFAF
:102F20008091CF028D7FBDCF8091CF028B7FB9CFB3
:102F30008091CF02877FB5CF8091D0028E7FB7CFAF
:102F40008091D0028D7FB3CF8091CF028F7EA9CFA9
:102F50008091CF028F7DA5CF8091CF028F7BA1CFB3
:102F60000E948D078091CF028F779BCF8091CF02F7
:102F7000837F97CF8091D0028C7F99CF8091CF02B1
:102F800082FB992790F921E0922790FB82F990FB30
:102F900083F987CF8091D002982F909591708E7F82
:102FA000892B90FB81F983CF9091CF02892F8F7B62
:102FB00096FF806476CF0E948D079091CF02892F73
:102FC00097FB87F980586DCF81E00E94070E8091B2
:102FD000CF029091D0020E947E0D0E948D0780E06A
:102FE000DF91CF91089580E0F0CF9091CF02892FAB
:102FF0008F7E94FF806155CF9091CF02892F8E7F75
:1030000090FF81604ECF9091D002892F877F93FFF0
:1030100088604DCF81E0E4CF282F35EB2303C0013A
:10302000112497FF04C080589109892F0895805872
:103030009F4FFBCF8091B20280FF0DC060912201B3
:1030400070E0660F771F6038710570F561157105C6
:1030500069F1862F089581FF07C06091220184E005
:10306000689FB0011124EFCF6091220182FD0AC058
:103070008091B1028823A9F0209121016091220161
:10308000821710F088E0ECCF869FC001112433E056
:10309000880F991F3A95E1F7622F70E00E949A29F4
:1030A000D2CF68E070E0D5CF8FE7089581E0089532
:1030B0008091B20280FF0CC060911E0170E0759596
:1030C0006795759567956115710549F1862F089586
:1030D00081FF06C060911E0170E075956795F3CF82
:1030E00060911E0182FD0BC09091B0029923A1F066
:1030F00060911D0180911E01961738F0682F70E0D5
:103100006038710500F38FE70895899FC00111248D
:1031100070E00E949A29F4CF61E070E0D7CF81E09F
:1031200008958D3C31F40E941A1881958093B6025F
:1031300008958E3C19F40E941A18F8CF8F3C31F490
:103140000E941A1881958093B5020895803D19F464
:103150000E941A18F8CF893D29F40E9458188093CC
:10316000B70208958A3D21F40E9458188195F7CF3F
:103170008B3D31F40E94581881958093B8020895D0
:103180008C3D19F40E945818F8CF9FE2980F9830A0
:1031900070F4815D990B21E030E001C0220F8A9527
:1031A000EAF78091B402822B8093B40208958D3D9A
:1031B00031F48091B20281608093B20208958E3D15
:1031C00021F48091B2028260F7CF8F3DB9F78091F0
:1031D000B2028460F1CF4091B5028D3C59F48091E8
:1031E000B60287FF0DC01092B60241110BC01092BB
:1031F000B10208C08E3C81F48091B60218169CF38F
:10320000442381F08091B7029091B802892B09F094
:103210005AC01092B00208958F3C49F447FFF0CF96
:103220001092B5028091B6028111ECCFE0CF803DC3
:1032300019F41416ACF3E4CF9091B702893D29F448
:103240001916F4F61092B702DBCF8A3D19F497FFF6
:10325000D7CFF8CF9091B8028B3D29F497FFD0CF0C
:103260001092B802CDCF8C3D19F41916CCF3C8CF0B
:103270009FE2980F983090F4815D990B21E030E047
:10328000B90102C0660F771F8A95E2F7CB018095DE
:103290009091B40289238093B402B2CF8D3D31F472
:1032A0008091B2028E7F8093B202AACF8E3D21F42C
:1032B0008091B2028D7FF7CF8F3D09F0A1CF809131
:1032C000B2028B7FF0CF08950E942C209C01909138
:1032D000B5028091B602982B21F03093AF02209373
:1032E000AE029091B7028091B802982B21F03093F2
:1032F000AD022093AC0283EB92E00E940F1E089572
:1033000086E0E3EBF2E0DF011D928A95E9F7109287
:10331000B1021092B0021092B2020895FC018281B3
:1033200081110EC0838181110BC08481811108C07D
:1033300091E08581811101C090E0892F817008950D
:1033400081E0FCCFA6E0B0E0E8EAF9E10C94CA29FC
:1033500086E0E3EBF2E0DE01119601900D928A9592
:10336000E1F71092B5021092B6021092B7021092D5
:10337000B8028B819C81892B89F08091AE0290915B
:10338000AF020E944420AC019091B1029923C9F18F
:10339000809123018417150608F440C08D819E8119
:1033A000892B91F08091AC029091AD020E94442053
:1033B000AC019091B002992309F46AC080911F0179
:1033C0008417150608F472C0BE016F5F7F4F83EB50
:1033D00092E00E945A1F811105C083EB92E00E9487
:1033E0008E1981110E94641986E0FE013196A3EBCB
:1033F000B2E001900D928A95E1F72696E3E00C94F5
:10340000E629209124018AE0289F900111242417A5
:10341000350720F69F5F9093B10202C09F3FD1F71E
:103420001B81112359F00E941A189FEF11160CF4FA
:1034300091E0899F802D11248093B5021C81112376
:1034400059F00E941A189FEF11160CF491E0899F11
:10345000802D11248093B6028091B502882309F44F
:103460009DCF1091B602112309F498CF0E940C1839
:10347000882351F08093B502812F0E940C18882375
:1034800029F08093B6028ACF81E0F4CF81E0F9CFB2
:10349000209120018AE0289F9001112424173507EC
:1034A00008F092CF9F5F9093B00202C09F3FD1F788
:1034B0001D81112359F00E9458189FEF11160CF42A
:1034C00091E0899F802D11248093B7021E811123E2
:1034D00059F00E9458189FEF11160CF491E0899F43
:1034E000802D11248093B8028091B702882309F4BB
:1034F0006BCF1091B802112309F466CF0E940C180B
:10350000882351F08093B702812F0E940C188823E2
:1035100029F08093B80258CF81E0F4CF81E0F9CF51
:10352000B0E0A0E0E6E9FAE10C94C429E82FF0E06D
:10353000E458FC4FB490282F26952695269530E028
:10354000F901E45EFB4F0491877010E0082E02C081
:10355000159507950A94E2F701701127F901E45FC8
:10356000FB4FE490F12C082E02C0F594E7940A94E6
:10357000E2F791E0E922FF24F901E450FC4FC49105
:10358000D0E002C0D595C7958A95E2F7C170DD27D6
:10359000C62ED12C0115110549F5E114F10431F0C5
:1035A00086EE0E949D04C601009771F5B6018B2D31
:1035B0000E941905C601009779F5E114F104A1F5FF
:1035C0000115110531F081EE0E94E604C601009755
:1035D000C9F5CD2B31F08CE20E943105C114D10424
:1035E000C9F5CDB7DEB7E9E00C94E02981EE0E9481
:1035F0009D04C601009789F2EFE9FFE03197F1F7EA
:1036000000C000000197F6CFEFE9FFE03197F1F736
:1036100000C000000197C8CFEFE9FFE03197F1F754
:1036200000C000000197C7CF86EE0E94E604C601E5
:10363000009731F2EFE9FFE03197F1F700C00000A9
:103640000197F6CFEFE9FFE03197F1F700C00000F6
:103650000197BDCF8FE99FE00197F1F700C000000F
:1036600091E0C91AD108BACFEF92FF920F931F933E
:10367000CF93DF93EC01162F0AE08881882309F4A9
:1036800059C0813009F052C08981813071F47E01C6
:1036900082E0E80EF11C8A810E943105E701812F4A
:1036A00090E00097D9F52196E8CF823041F47E0171
:1036B000E2E0EE0EF11C8A810E949D04EFCF833080
:1036C00041F47E01F2E0EF0EF11C8A810E94E604D3
:1036D000E5CF843011F02196E2CF2A81229690E046
:1036E00080E0AE014F5F5F4F2053330B2A3031052E
:1036F00050F00097A1F2EFE9FFE03197F1F700C039
:1037000000000197F6CF089FB001099F700D1124AA
:10371000C901860F971F2981EA01E3CFEFE9FFE096
:103720003197F1F700C000000197BBCF612F0E94D5
:10373000901AB9CFCDB7DEB7E6E00C94E3290F932A
:103740001F93CF93DF93C42FD22FFC018581882351
:10375000C9F04093BB020E942C209093BA02809340
:10376000B90280E28C0F883040F4C77081E001C05C
:10377000880FCA95EAF70E943A05DF91CF911F9111
:103780000F9108951091BB02141332C08091B902B9
:103790009091BA020E944420883C910548F5C0E20D
:1037A000CD0F1D17B9F080E2810F883040F41770FB
:1037B00081E001C0880F1A95EAF70E944105C830E0
:1037C00048F481E09D2F977001C0880F9A95EAF721
:1037D0000E943A05802F0E943105C83070F6D770DC
:1037E00081E001C0880FDA95EAF70E944105C5CF54
:1037F00080E28C0F883008F6C77081E001C0880F26
:10380000CA95EAF7F2CF0F93DB0188519C478730C6
:103810009105A0F5FC01E256F54D0C94AE2906E2A7
:1038200021EE41EE6AE17CE7CD010E949F1B80E022
:103830000F91089507E225EE45EE6BE17CE7F4CFAA
:1038400006E221EE40EE68E17CE7EECF07E225EEEE
:1038500044EE69E17CE7E8CF06E221EE42EE6CE15E
:103860007CE7E2CF07E225EE46EE6DE17CE7DCCFB8
:1038700008E221E045EE6EE17CE7D6CF15968C910B
:10388000882319F01092BB02D3CF81E0D1CF1F93D0
:10389000CF93DF9387372CE7920759F0C1E0883741
:1038A0009C47E1F4FB01C581CC2371F10E948A1C85
:1038B00006C0FB01C581CC23B1F00E94871C0E9489
:1038C00016080E948D1CD82F0E948A1CC82F0E94A7
:1038D000871C4D2F6C2F0E946109C0E08C2FDF9157
:1038E000CF911F9108950E94871C0E9426080E9474
:1038F0008D1C182F0E948A1CD82F0E94871C412FD4
:103900006D2F0E946109EACF0E948A1CEECF809140
:103910002701089580912601089580912501089539
:1039200084E290E00E941C2A833289F485E290E0D0
:103930000E941C2A893059F486E290E00E941C2AD9
:1039400091E0843009F090E0892F8170089580E043
:10395000FCCFCF93C82F6FEF811163E284E290E038
:103960000E943A2A6FEFC11169E085E290E00E945F
:103970003A2A6FEFC11164E086E290E00E943A2A91
:10398000CF910895089587E290E00E941C2A682F45
:1039900070E090E080E008950895CF93C62F0E94D4
:1039A000CC1C6C2F87E290E00E943A2ACF910895B8
:1039B00080E00E94A91C60E070E0CB010E94CD1C59
:1039C0000E94B8150E94791681E00E94A91C0895F2
:1039D0000E94C21C0E94C31C0E94CC1C0E94901C0E
:1039E000811102C00E94D81C089508959C01FB011A
:1039F0008581882351F0A90157574038510530F48B
:103A0000822F0E94891680E0089581E008952FEFAB
:103A1000FC01208308950E94071D089580E0089509
:103A2000B0E0A0E0E6E1FDE10C94C529EC01E62E52
:103A30000E940E1D811110C0E881E150E331B8F4FD
:103A4000F0E0EB55F54D0C94AE2919828CE08A8399
:103A50006E2DCE010E94BB22CDB7DEB7E8E00C94FC
:103A6000E12989818230C1F028F4813061F08FEF43
:103A70008883EECF833099F08430C9F71A821B8295
:103A80001C821D82E5CF0E9438200E94B4296A83DF
:103A90007B838C839D83DCCF0E94C31CF6CF8A81FD
:103AA000082F10E06E0193E0C90ED11C9CE1F92EA5
:103AB000F80E0830110560F6802F0E946B11F60198
:103AC00081936F010F5F1F4FF012F3CFC1CF898138
:103AD000823031F0853059F68A810E94F51CB8CFCA
:103AE0006A817B818C819D810E94B4290E94CD1CBA
:103AF000AFCF4B816A8189810E947A1598278927E7
:103B000098279D838C83A4CF2C813D813227232746
:103B100032274B816A8189810E949C1599CF0E942E
:103B2000B81596CF6E2DCE010E940B1D91CF0E942D
:103B30002C1689838DCF0E942E16982789279827C7
:103B40009A83898385CF6B8170E089819A81AE01E8
:103B50004C5F5F4F9827892798270E94311678CFAE
:103B60006B8170E089819A81AE014C5F5F4F98272D
:103B7000892798270E9455166BCF0E94791668CF27
:103B80000E946815D6CF6B8170E089819A81AE0161
:103B90004C5F5F4F9827892798270E94D81558CFE8
:103BA0006B8170E089819A81AE014C5F5F4F9827ED
:103BB000892798270E94FC154BCF9093C2028093CF
:103BC000C10208950E941F13811103C08091BC029D
:103BD0000895E091C102F091C202309729F001905E
:103BE000F081E02D0995089580E00895E091C102EB
:103BF000F091C202309721F00280F381E02D099507
:103C00000895E091C102F091C202309739F026E0A8
:103C1000DC012C930480F581E02D09950895E09155
:103C2000C102F091C202309739F022E0DC012C93FE
:103C30000680F781E02D09950895A3E0B0E0E3E266
:103C4000FEE10C94CB292091BF023091C0022817CD
:103C50003907A1F09093C0028093BF02E091C102A6
:103C6000F091C202309751F023E029839B838A832D
:103C70000084F185E02DCE01019609952396E2E0BE
:103C80000C94E729A3E0B0E0E8E4FEE10C94CB2932
:103C90002091BD023091BE0228173907A1F0909300
:103CA000BE028093BD02E091C102F091C202309742
:103CB00051F024E029839B838A830084F185E02DE1
:103CC000CE01019609952396E2E00C94E729209114
:103CD0000201309103012E5F3F4F80913201882312
:103CE00079F08091CF0287FF0BC0209100013091C5
:103CF00001012E5F3F4F9EE180E0915018F408953E
:103D000096E0FACFF90141919F014423B1F38F5F0F
:103D1000F4CF882321F190913201992311F19091F0
:103D2000CF0297FF1EC0E82FE695E695E695EE31A7
:103D3000B0F42091000130910101E20FF32FF11D49
:103D4000228130E0877041E050E002C0440F551FEF
:103D50008A95E2F72423352381E0232B91F480E038
:103D600008952091020130910301F9013296285FF4
:103D70003F4F9191981721F0E217F307D1F7EFCF5A
:103D800081E008959C01FC0132969FEF80E0419113
:103D9000461751F09F3F19F4411101C0982F8F5FD2
:103DA0008630A9F79F3F09F40895290F311D97FD2B
:103DB0003A95F90162830895FC01329608962191A3
:103DC000261303C0DF0111971C92E817F907B9F712
:103DD0000895E62FE695E695E695EE3168F4E80F4E
:103DE000F92FF11D677021E030E001C0220F6A95C4
:103DF000EAF78281822B82830895E62FE695E69585
:103E0000E695EE3170F4E80FF92FF11D677021E0AF
:103E100030E001C0220F6A95EAF7209582812823BD
:103E200022830895682F80913201882359F0809170
:103E3000CF0287FF07C080910001909101010E948D
:103E4000E91E089580910201909103010E94C21E13
:103E50000895682F80913201882359F08091CF0214
:103E600087FF07C080910001909101010E94FD1E13
:103E7000089580910201909103010E94DC1E089533
:103E800080913201882379F08091CF0287FF0BC0A7
:103E9000E0910001F091010132968EE1DF011D9267
:103EA0008A95E9F70895E0910201F09103013296B5
:103EB00086E0F4CFDC01FB0111969C911197818182
:103EC000981322C012968C911297882319F0928130
:103ED00089131AC013968C911397882319F0938134
:103EE000891312C015968C911597882319F0958126
:103EF00089130AC014969C91992321F081E02481B2
:103F0000291303C080E001C081E081700895089505
:103F10000E94871F0895811106C081E08093C3022B
:103F20000E94881F089582E0F9CF83E08093C30246
:103F30000E94881F08950E948B1F089581E080933E
:103F4000C3020E94881F08950E949E1F089508952D
:103F500008950E94A81F0895089508950E94A71F1C
:103F60000895CF930E94AC1F0E9499120E94AD1F2A
:103F7000C0E08C2F0E946B11811105C0CF5FC8304B
:103F8000C1F7CF91089581E0FCCF85B7806885BFE8
:103F900085B7806885BF08951F921FB61F921124B0
:103FA0008F939F93AF93BF938091C402811113C0ED
:103FB0008091E7029091E802A091E902B091EA02B3
:103FC0004196A11DB11D8093E7029093E802A09352
:103FD000E902B093EA02BF91AF919F918F911F9038
:103FE0001FBE1F9018958091EF02843031F10E941E
:103FF00018041092C40288E190E020E40FB6F8940F
:10400000A895809360000FBE2093600083B7817FE6
:10401000846083BF83B7816083BF7894889583B7BA
:104020008E7F83BF0FB6F894A89580916000886159
:1040300080936000109260000FBE08950E948D076B
:104040000E941D04089582E084BD93E095BD9AEF1F
:1040500097BD80936E0008952FB7F8948091E70282
:104060009091E802A091E902B091EA022FBF089571
:104070002FB7F8946091E7027091E8028091E9020D
:104080009091EA022FBF08959C014FB7F894809158
:10409000E7029091E802A091E902B091EA024FBFD5
:1040A000821B930B0895CF92DF92EF92FF922FB76E
:1040B000F894C090E702D090E802E090E902F09016
:1040C000EA022FBFA7019601261B370B480B590B9D
:1040D000CA01B901FF90EF90DF90CF9008957894D6
:1040E0001F921FB61F9211248F939F93AF93BF937C
:1040F0008091E7029091E802A091E902B091EA0272
:104100000196A11DB11D8093E7029093E802A09350
:10411000E902B093EA02BF91AF919F918F911F90F6
:104120001FBE1F90189587E797E79093010880932B
:10413000000888E19AE00FB6F894A8958093600093
:104140000FBE90936000FFCF88E19AE00FB6F8941D
:10415000A895809360000FBE90936000FFCF8EE122
:104160004A9B02C08150E1F74A9BFECF08955A98BE
:1041700080E28A95F1F75A9A0895FC013BE03A955E
:10418000F1F798E020E080E031E040E14A95F1F776
:10419000880F4A9B02C08160232742E04A95F1F7CD
:1041A000000040E14A95F1F7915079F790E19A9536
:1041B000F1F799B132E03A95F1F7000040E14A9504
:1041C000F1F792FB992790F992272081920F908323
:1041D0000895A1E0B0E0EFEEF0E20C94C729198257
:1041E0008C017C01E60EF11C0E151F0541F481E0E7
:1041F0009981911180E02196E6E00C94E3290E94D8
:10420000AF20CE0101960E94BD20F80181938F015D
:10421000EBCF529A5A9A089552985A9AEA9AE9E636
:10422000F0E080818F7C808308956150770B91E06E
:1042300001C0990F6A95EAF720E031E0911108C0BA
:10424000222391F05A9A80E28A95F1F75A980895BC
:10425000492F482339F05A9A232740E24A95F1F72B
:104260009695ECCF5A98F9CF5A98EDCFFF920F93CD
:104270001F93CF93DF93EC018C01060F111DC01724
:10428000D10729F4CDB7DEB7E5E00C94E429F99025
:104290000E94B72068E08F2D0E941521F0CF1F9259
:1042A0000F920FB60F9211240F931F932F933F93EA
:1042B0004F935F936F937F938F939F93AF93BF932E
:1042C000EF93FF93CF93DF930F92CDB7DEB71982B1
:1042D0000E94AF20CE0101960E94BD20082F0695B6
:1042E00006950695282F22952570902F9570290FF9
:1042F000922F937026952695920F98279770898113
:10430000982B09F05CC0043008F059C080E18A9510
:10431000F1F75A9A529A82E08A95F1F700C05A98BA
:1043200088E0089F80011124D801AB5FBE4F16962C
:10433000ED91FC9117973097A9F06091AE017091C3
:10434000AF0114962D913C911597260F371F1196AA
:104350008D919C911297680F791F13964C9113972A
:104360008C910995F801EB5FFE4F6381662351F054
:104370002091AE013091AF0184819581820F931F0E
:104380000E9436210E94B72080E18A95F1F75A9861
:1043900052985A9A80E18A95F1F7F801EB5FFE4F47
:1043A0006081662351F02091AE013091AF0181818F
:1043B0009281820F931F0E94E9200E94AF200F90EC
:1043C000DF91CF91FF91EF91BF91AF919F918F912D
:1043D0007F916F915F914F913F912F911F910F911D
:1043E0000F900FBE0F901F9018950F931F93CF93B0
:1043F000DF93EC0104970CF04CC0F894529A5A9851
:1044000085E08A95F1F700009C2F969595708C2F8A
:104410008570980F892F83709695969523E0CC0F21
:10442000DD1F2A95E1F7980F8E01092B0E94B72016
:1044300000C068E0802F0E94152180E18A95F1F785
:1044400052985A9A4A9B1EC087E090E04A991CC035
:10445000FE01EB5FFE4F63816623F9F02091AE0110
:104460003091AF0184819581820F931F0E94E920D2
:10447000811113C0529A5A9A7894DF91CF911F916B
:104480000F91089500C0DECF019729F4529A5A9AED
:10449000789480E0F2CF00C0D9CF0E94AF2080E2B4
:1044A0008A95F1F75A98529A80E18A95F1F7CB5F95
:1044B000DE4F6881662351F02091AE013091AF014B
:1044C00089819A81820F931F0E9436210E94B72012
:1044D000789481E0D2CF8091CD0208959B01BA01FA
:1044E0009091EF029430E9F48F708093E9009FEF90
:1044F0008091E800915085FD06C085ED8A95F1F721
:1045000000009111F5CF8091E80085FF0AC050E0CE
:1045100040E0C9010E94B2248091E8008E77809328
:10452000E800089543E050E0BC0184E00E946E2260
:10453000089546E050E0BC0184E00E946E22089598
:1045400040E250E0BC0184E00E946E220895CF93C7
:10455000DF93EC0148E050E0BC0181E00E946E2254
:1045600088E0FE01A5ECB2E001900D928A95E1F79A
:10457000DF91CF910895603231F440E250E0BC0108
:1045800082E00E946E220895A0E2B0E0EAECF2E23E
:104590000C94CB298091EF02843009F583E080935D
:1045A000E9008091E80082FF1AC08091E80090E065
:1045B00085FF09C050E040E060E270E0CE01019666
:1045C0000E94012591E08091E8008B778093E800BC
:1045D000992329F060E2CE0101960E94101DA09659
:1045E000E2E00C94E7298091EE02811109C00E945B
:1045F00091260E94EE268091E20084608093E20082
:1046000008951092EE0208950E949E1F08956091F1
:10461000EB0281E0611101C080E00E94951F0895C6
:104620009091EF0281E0943009F080E06091EB021C
:104630000E949B1F089542E061EC81E00E940D26DC
:1046400042E261EC84E00E940D2642E261EC82E0ED
:104650000E940D2642E260EC83E00E940D269091BC
:10466000EF0281E0943009F080E06091EB020E945B
:104670008B1F08958091F102833009F463C030F4F8
:104680008130E1F1823009F4A0C008958A3009F444
:104690008CC08B3009F471C0893009F052C0809110
:1046A000F002813209F04DC08091F4029091F50240
:1046B000009719F0029709F044C08091E800877FC5
:1046C0008093E8008091E80082FF37C09091F3006A
:1046D0008091F200029731F48091F100813011F065
:1046E000863021F48091F1008093CD028091E80022
:1046F0008B778093E8000E94412623C08091F002CE
:10470000813AF9F48091E800877F8093E8008091F6
:10471000F4029091F502892B61F468E085EC92E057
:1047200070E00E9450258091E8008B778093E8002C
:10473000089560E090E080E0F3CF8091EF02811176
:10474000C1CF08958091F002813AD9F78091F402A7
:104750009091F502892BA9F78091E800877F8093DB
:10476000E8008091E80080FFFCCF809132018093C7
:10477000F1008091E8008E77BCCF8091F002813209
:1047800001F78091F4029091F502892BD1F6809186
:10479000E800877F8093E8000E9441268091F20222
:1047A000809332010E948D0708958091F00281323A
:1047B00041F68091E800877F8093E8000E944126BF
:1047C0008091F3028093CE0208958091F002813AA5
:1047D00009F0B7CF8091E800877F8093E80080914F
:1047E000E80080FFFCCF8091CE02C1CF84B7877FE5
:1047F00084BF0FB6F894A89580916000886180937B
:104800006000109260000FBE80E890E00FB6F89450
:1048100080936100909361000FBE0E94A41F0895D1
:104820000E9491260E94EE26E2EEF0E080818460F4
:10483000808378940E946D29089588E291E00E9417
:10484000DD1D08958091EF02853031F48091EF02F3
:10485000853019F00E941E2008950E94F31F0E94C7
:10486000B11F882399F38091ED02882379F30E9488
:104870009C240E948D07EACF08959A014091F60288
:104880005091F7020E9445240895492F552743303F
:10489000510521F168F44130510509F443C042301B
:1048A000510509F444C090E080E050E040E026C0AB
:1048B0004132510551F142325105A9F7633071057A
:1048C00090F7FB01EE0FFF1FED54FE4F4081518129
:1048D00060557E4FFB01808190E010C099278130A8
:1048E000910581F0009729F00297E9F6ECE2F4E0F7
:1048F00002C0EEE5F4E0849190E0AF01F90151834C
:1049000040830895EEE3F4E0F6CF6330710558F686
:10491000660F771FFB01E754FE4F4081518189E00C
:1049200090E0ECCF82E190E04DEB54E0E7CF8BE5F7
:1049300090E042E654E0E2CF80E189BD82E189BDAA
:1049400009B400FEFDCF8091D8008F7D8093D80000
:104950008091E00082608093E0008091E00081FD22
:10496000FCCF0895AF92BF92CF92DF92FF920F9348
:104970001F93CF93DF936C01EB018A010E946026A5
:10498000F82E811123C00115110539F0F80180813D
:104990009181C81BD90BC80ED91EB12CA12C209710
:1049A000A9F08091E80085FD22C08091E8008E7713
:1049B0008093E80001151105A1F0F8018081918133
:1049C000A80EB91EB182A08285E0F82E8F2DDF914E
:1049D000CF911F910F91FF90DF90CF90BF90AF903C
:1049E00008950E9460268823D1F2F82EEFCFF601B9
:1049F00081916F018093F1002197FFEFAF1ABF0AF9
:104A0000CECFAF92BF92CF92DF92FF920F931F93C0
:104A1000CF93DF936C01EB018A010E946026F82E90
:104A2000811123C00115110539F0F80180819181B0
:104A3000C81BD90BC80ED91EB12CA12C2097A9F0E8
:104A40008091E80085FD22C08091E8008B778093FB
:104A5000E80001151105A1F0F80180819181A80EEF
:104A6000B91EB182A08285E0F82E8F2DDF91CF9103
:104A70001F910F91FF90DF90CF90BF90AF9008955E
:104A80000E9460268823D1F2F82EEFCF8091F100AA
:104A9000F60181936F012197FFEFAF1ABF0ACECFC6
:104AA000FC018091F6029091F70286179707A0F01B
:104AB0006115710529F49091E8009E779093E800C4
:104AC00090E06115710551F4911108C08091E800E2
:104AD00082FF34C080E00895BC01F2CF8091EF02E4
:104AE0008823C1F18530C1F18091E80083FD30C099
:104AF0008091E80082FDEACF8091E80080FFE1CF5D
:104B00008091F3002091F200382F6115710519F0A2
:104B10002830310558F091E02830310509F090E057
:104B20002091E8002E772093E800CBCF81918093ED
:104B3000F100615071092F5F3F4FE7CF8091EF0285
:104B4000882341F0853041F08091E80083FFBECF9B
:104B500081E0089582E0089583E00895FC0180914A
:104B6000F6029091F70286179707A0F0611571057C
:104B700029F48091E8008E778093E80090E0611539
:104B8000710551F4911108C08091E80082FF35C091
:104B900080E00895BC01F2CF8091EF028823C9F133
:104BA0008530C9F18091E80083FD31C08091E80033
:104BB00082FDEACF8091E80080FFE1CF8091F30091
:104BC0002091F200382F6115710519F02830310558
:104BD00058F091E02830310509F090E08091E8002C
:104BE0008E778093E800CBCF84918093F10031964B
:104BF000615071092F5F3F4FE6CF8091EF0288230C
:104C000041F0853041F08091E80083FFBDCF81E025
:104C1000089582E0089583E00895982F973028F052
:104C20008F708093E90081E008959093E900242F2C
:104C3000762F50E0981731F07091EC002091ED0044
:104C40005091F00021FD02C09F5FE8CF3091EB0052
:104C50003E7F3093EB003091ED003D7F3093ED00CF
:104C60003091EB0031603093EB007093EC002093B7
:104C7000ED005093F0002091EE0027FDE5CF80E09D
:104C800008958091F00287FF13C08091E80082FFB1
:104C900006C08091E8008B778093E80004C0809183
:104CA000EF028111F2CF08958091EF028823D9F3AA
:104CB0008091E80080FFF8CF8091E8008E77ECCFFC
:104CC0002091E4003091E50095E6A9012091EC00E7
:104CD000822F817020FF06C08091E80080FF06C00F
:104CE00080E008952091E80022FD1AC08091EF0233
:104CF000882389F0853089F08091EB0085FD0FC015
:104D00002091E4003091E50042175307F9F29150E9
:104D1000E1F684E0089582E0089583E0089581E05B
:104D200008950E9400270E940827E0EEF0E08081AD
:104D300081608083E8EDF0E080818F77808319BC0B
:104D4000A7EDB0E08C918E7F8C9380818F7E8083E5
:104D50001092EE0208950F931F93CF93DF930E945A
:104D600000270E940827C8EDD0E088818F778883CC
:104D700088818068888388818F7D888319BC1092A0
:104D8000EF021092EB021092ED021092EC0200EE94
:104D900010E0F80180818B7F808388818160888327
:104DA00042E060E080E00E940D26E1EEF0E08081CC
:104DB0008E7F8083E2EEF0E080818160808380815D
:104DC00088608083F80180818E7F80838881806104
:104DD0008883DF91CF911F910F910895E8EDF0E066
:104DE00080818F7E8083E7EDF0E080818160808329
:104DF00084E082BF81E08093EE020E94AB2608959A
:104E0000E8EDF0E080818E7F80831092E2000895CB
:104E10001092DA001092E10008951F920F920FB6DF
:104E20000F9211242F933F934F935F936F937F9330
:104E30008F939F93AF93BF93EF93FF938091E10084
:104E400082FF0BC08091E20082FF07C08091E100E9
:104E50008B7F8093E1000E946C298091DA0080FFB3
:104E600019C08091D80080FF15C08091DA008E7F34
:104E70008093DA008091D90080FF96C080E189BDDF
:104E800082E189BD09B400FEFDCF81E08093EF028D
:104E90000E94F3228091E10080FF19C08091E2001E
:104EA00080FF15C08091E2008E7F8093E2008091A8
:104EB000E20080618093E2008091D800806280935C
:104EC000D80019BC85E08093EF020E9407238091EF
:104ED000E10084FF2BC08091E20084FF27C080E1C5
:104EE00089BD82E189BD89B5982F917080FFFBCF84
:104EF0008091D8008F7D8093D8008091E1008F7ED3
:104F00008093E1008091E2008F7E8093E2008091A7
:104F1000E20081608093E2008091EB02882309F433
:104F200049C084E08093EF020E9410238091E10049
:104F300083FF29C08091E20083FF25C08091E100BA
:104F4000877F8093E10082E08093EF021092EB0272
:104F50008091E1008E7F8093E1008091E2008E7F5E
:104F60008093E2008091E20080618093E20042E061
:104F700060E080E00E940D268091F00088608093C0
:104F8000F0000E940423FF91EF91BF91AF919F9198
:104F90008F917F916F915F914F913F912F910F90E2
:104FA0000FBE0F901F90189519BC1092EF020E942F
:104FB000012370CF8091E30087FD93E09093EF028F
:104FC000B3CF1F920F920FB60F9211242F933F93DE
:104FD0004F935F936F937F938F939F93AF93BF9301
:104FE000CF93DF93EF93FF93D091E900DF7080912F
:104FF000EC00C82FC17080FDC0E81092E9008091DC
:10500000F000877F8093F00078940E94252810920A
:10501000E9008091F00088608093F000CD2BCF7084
:10502000C093E900FF91EF91DF91CF91BF91AF91D4
:105030009F918F917F916F915F914F913F912F91B0
:105040000F900FBE0F901F901895AAE2B0E0EBE210
:10505000F8E20C94CA2980EF92E02091F100FC0163
:105060002193CF01F2E0883F9F07B9F70E943A23CE
:105070008091E80083FF1EC18091F0029091F102BF
:105080009A3008F017C1E92FF0E0E854F54D0C9480
:10509000AE29803899F0823809F00CC18091F40271
:1050A0008F70873008F006C18093E9008091EB0093
:1050B00085FB882780F91092E90006C08091EC02F8
:1050C0009091ED02911182609091E800977F90930A
:1050D000E8008093F1001092F1008091E8008E7753
:1050E000E5C0882309F4D3C0823009F0E3C0809181
:1050F000F2028111D6C08091F4028F702FEF280F39
:10510000263008F0D7C08093E9002091EB0020FF03
:10511000C8C0933031F48091EB0080628093EB0043
:10512000C0C09091EB0090619093EB0021E030E0E3
:1051300001C0220F8A95EAF72093EA001092EA0054
:105140008091EB008860EACF8111B4C01091F20227
:105150001F778091E3008078812B8093E30080911A
:10516000E800877F8093E8000E9441268091E80054
:1051700080FFFCCF8091E30080688093E30082E0B1
:10518000111183E08093EF0295C08058823008F0BF
:1051900091C08091F2029091F3028C3D23E092073E
:1051A000A1F583E08A838AE289834FB7F894DE0110
:1051B000139620E03EE051E2E32FF0E050935700D9
:1051C000E49120FF03C0E295EF703F5FEF708E2FF8
:1051D00090E0EA30C0F0C7968D939D932F5F243105
:1051E00059F74FBF8091E800877F8093E8006AE21B
:1051F00070E0CE0101960E9450258091E8008B77E7
:105200008093E80057C0C096E7CF6091F402709198
:10521000F502AE014F5F5F4F0E943D24BC01892B18
:1052200009F448C09091E800977F9093E800898145
:105230009A810E94AE25E1CF8038E1F58091E800A7
:10524000877F8093E8008091EB028093F10045CF47
:10525000811130C09091F202923060F58091E800A7
:10526000877F8093E8009093EB020E944126809113
:10527000EB02882311F084E005C08091E30087FDF4
:10528000FACF81E08093EF020E941B2313C080912C
:10529000F202813079F481E0933009F080E080936C
:1052A000ED021092E9008091E800877F8093E8008A
:1052B0000E9441268091E80083FF0AC08091E800A7
:1052C000877F8093E8008091EB0080628093EB0001
:1052D000AA96E3E00C94E6290895CF938091EF021B
:1052E0008823A1F0C091E900CF709091EC00892F44
:1052F000817090FD80E8C82B1092E9008091E80051
:1053000083FD0E942528CF70C093E900CF910895B6
:105310000E9491261092EF020895E8EDF0E080815E
:10532000806180838AE18A95F1F700C08091D9007D
:105330008170089597FB072E16F4009407D077FD2F
:1053400009D00E94F22907FC05D03EF49095819582
:105350009F4F0895709561957F4F0895EE0FFF1F41
:105360000590F491E02D09946927962769277827FD
:105370008727782708952F923F924F925F926F92DE
:105380007F928F929F92AF92BF92CF92DF92EF92D5
:10539000FF920F931F93CF93DF93CDB7DEB7CA1B56
:1053A000DB0B0FB6F894DEBF0FBECDBF09942A8881
:1053B000398848885F846E847D848C849B84AA8429
:1053C000B984C884DF80EE80FD800C811B81AA81B6
:1053D000B981CE0FD11D0FB6F894DEBF0FBECDBF81
:1053E000ED010895AA1BBB1B51E107C0AA1FBB1FFB
:1053F000A617B70710F0A61BB70B881F991F5A9561
:10540000A9F780959095BC01CD010895FB01DC01C1
:1054100004C08D910190801921F441505040C8F78B
:10542000881B990B0895FB01DC0102C001900D92CD
:1054300041505040D8F70895F999FECF92BD81BDF3
:10544000F89A992780B50895A8E1B0E042E050E0CD
:105450000C94602ADC01A40FB51F4150504048F065
:10546000CB01840F951F2E910E943B2A4150504042
:10547000D0F70895262FF999FECF92BD81BDF89AF5
:10548000019700B4021639F01FBA20BD0FB6F89488
:10549000FA9AF99A0FBE08950396272F0E943B2A85
:1054A0000E943A2A252F0E943B2A242F0C943B2A43
:1054B0000196272F0E943B2A0C943A2ADC01CB014B
:1054C000FC01F999FECF06C0F2BDE1BDF89A319614
:1054D00000B40D9241505040B8F70895F894FFCFB2
:1054E00089058905D905D9053E065A06B805B805C6
:1054F0005F06D006DF06DF068817FC1790175A17DD
:105500005E17941762179817A4176E17F51772177E
:10551000A8177617AC17D4177A17B017DB178017B0
:10552000B617BE1766179C176A17A0178417BA1705
:10553000CA17E417F31754178C170318201C261CDE
:105540000F1C1A1C2C1C321C381C251D311D671DFC
:10555000791D841D8F1D921D921D921D371D371DB3
:10556000971D9B1DA31DB01DBD1DC01DC31DD01DBE
:10557000492871285A2971285A29A428C5285A2946
:045580001C29282991
:105584004C026C0201000000010000000000000059
:105594000401000000040500000000000028085079
:1055A400011E0A14010302016B22A722A0229922E0
:1055B400922201E200E900EA00B500B600B700CD8E
:1055C400008301CC008A0192019401210223022468
:1055D400022502260227022A02B300B4006F0070DB
:1055E400009F01CB019F02A002818283E200E900B7
:1055F400EA00B500B600B700CD008301CC008A01F3
:105604009201940121022302240225022602270288
:105614002A02B300B4006F0070009F01CB019F0207
:10562400A002818283946697C634F4F5F6F7920259
:105634004422B6A705CF04F10474048D04AD04001C
:00000001FF
